:100000000C94DF000C9400010C9400010C9400018E
:100010000C9400010C9400010C9400010C9400015C
:100020000C9400010C9400010C9400010C9400014C
:100030000C9400010C9400010C9400010C9400013C
:100040000C9400010C9400010C9400010C9400012C
:100050000C9400010C9400010C9400010C9400011C
:100060000C9400010C9400010C9400010C9400010C
:100070000C9400010C9400010C9400010C940001FC
:100080000C9400010C9400010C9400010C940001EC
:100090000C9400010C9400010C9400010C94FB01E1
:1000A0000C9400010C9400010C9400010C940001CC
:1000B0000C9400010C9400010C9400010C940001BC
:1000C0000C9400010C9400010C9400010C940001AC
:1000D0000C9400010C9400010C9400010C9400019C
:1000E0000C940001C10226022602260226022602E4
:1000F00026022602390226022602260226022602AD
:100100002602260270022602260226022602260265
:10011000260226023602260226022602260226028F
:10012000260226021902260226022602260226029C
:10013000260226023902260226022602260226026C
:10014000260226021902260226022602260226027C
:10015000260226021902260226022602260226026C
:100160002602260274022602260226022602260201
:10017000260226021902260226022602260226024C
:1001800026022602A10226022602260226022602B4
:10019000260226028A020C9426020C9419020C9460
:1001A00002010C9439020C94A1020C9474020C9478
:1001B0008A020C9436020C94C1020C947002112431
:1001C0001FBECFEFD1E2DEBFCDBF00E00CBF12E01B
:1001D000A0E0B2E0E4E9FBE000E00BBF02C0079062
:1001E0000D92A831B107D9F722E0A8E1B2E001C031
:1001F0001D92A135B207E1F70E94D4020C94C80504
:100200000C9400008A3049F09091C00095FFFCCF1B
:100210008093C60080E090E008959091C00095FF23
:10022000FCCF9DE09093C600EFCF9093C5008093E4
:10023000C40086E08093C20088E98093C1000895DD
:100240009091C00095FFFCCF8093C60008958091E7
:10025000C00087FFFCCF8091C60008958091C00048
:10026000881F8827881F0895FC012081222351F0D0
:1002700031969091C00095FFFCCF2093C60021914C
:100280002111F7CF089580E092E090934E02809381
:100290004D021092C50082E38093C40086E08093F3
:1002A000C20088E98093C1000895ECE2F2E0108278
:1002B0008FEF818312821092B90088E48093B80096
:1002C00085E08093BC00089590912C029D7F81E091
:1002D00009F080E00895653128F02CC025E02A95CA
:1002E000F1F7000020912C02322F3D7FB9F74093A7
:1002F0002E0270E06115710559F0DC01E1E3F2E0D6
:10030000AB014F5C5D4F8D9181934E175F07D9F71D
:1003100070934A02609349021092300210922F02A9
:1003200081E080932C02223039F085EA8093BC0072
:1003300080E0089581E0089580912F02909130022D
:100340009C012F5F3F4F3093300220932F02FC011E
:10035000EF5CFD4F80818093BB0085E88093BC00FB
:1003600080E00895643110F080E008951092480212
:100370001092470270E07093460260934502880F26
:10038000816004C095E09A95F1F7000090912C02ED
:10039000292F2D7FB9F740932E028093310221E05F
:1003A00030E030934A0220934902109230021092BA
:1003B0002F02923041F081E080932C0285EA8093F5
:1003C000BC0081E0089581E080932C0280912F028F
:1003D000909130029C012F5F3F4F30933002209369
:1003E0002F02FC01EF5CFD4F80818093BB0085E80C
:1003F0008093BC00E6CF1F920F920FB60F9211248C
:100400000BB60F922F933F934F938F939F93AF937E
:10041000BF93EF93FF938091B900887F90E0893577
:100420009105A0F4FC018827EE58FF4F8F4F0C94E4
:10043000F20280912E02882309F4ABC08091B900AA
:10044000887F80932D0285EA8093BC00FF91EF9115
:10045000BF91AF919F918F914F913F912F910F90AD
:100460000BBE0F900FBE0F901F90189583E08093E6
:100470002C0220912F0230913002809149029091FC
:100480004A0228173907A4F080912E02882339F0F8
:100490008FEF80932D0285EA8093BC00D7CF109216
:1004A0002C028FEF80932D0285E98093BC00CECF84
:1004B00080912F02909130029C012F5F3F4F30932B
:1004C000300220932F02FC01EF5CFD4F808180936E
:1004D000BB0088EF80932D0285E88093BC00B6CFE7
:1004E00082E080932C02B2CF84E080932C02809132
:1004F00045029091460201972091470230914802AF
:1005000028173907BCF588EF80932D0285EC80937E
:10051000BC009CCF80914702909148029C012F5FC4
:100520003F4F30934802209347022091BB00FC01CB
:10053000E85EFD4F208380912E02882309F4AFCF1F
:10054000A7CF80914702909148029C012F5F3F4FB7
:1005500030934802209347024091BB00FC01E85EC3
:10056000FD4F4083809145029091460201972817E4
:1005700039074CF288EF80932D0285E88093BC0008
:1005800065CF10922D0210922C0285E98093BC0059
:100590005DCF10922C028091B900887F80932D024C
:1005A00085E98093BC0052CF0E94430104EF14E21E
:1005B000CEE0D2E01F920F931F931F92DF93CF9351
:1005C0000E94FA029FEF23ED80E39150204080408B
:1005D000E1F700C000000F900F900F900F900F9068
:1005E0000F90E8CFEE0FFF1F881F8BBF0790F6918B
:1005F000E02D1994CF93DF93CDB7DEB7AE014A5FFC
:100600005F4FFA0161917191AF0180914D0290911C
:100610004E020E940E03DF91CF9108952F923F92D8
:100620004F925F926F927F928F929F92AF92BF9202
:10063000CF92DF92EF92FF920F931F93CF93DF93AE
:10064000CDB7DEB72B970FB6F894DEBF0FBECDBF88
:100650006C017B018A01FC0117821682838181FF74
:10066000CCC1CE0101963C01F6019381F70193FDC7
:10067000859193FF81917F01882309F4BAC1853266
:1006800039F493FD859193FF81917F01853229F49F
:10069000B60190E00E942E05E7CF912C212C312C41
:1006A000FFE1F315D8F08B3279F038F4803279F02D
:1006B0008332A1F4232D20611DC08D3261F080337F
:1006C00069F4232D216016C0832D8260382EE32D1E
:1006D000E4603E2E2AC0F32DF8601DC037FC2DC00B
:1006E00020ED280F2A3040F08E32B9F436FC81C15B
:1006F000232D2064322E19C036FE06C08AE0989E53
:10070000200D1124922E11C0EAE02E9E200D1124FE
:10071000222EF32DF0623F2E08C08C3621F4832D5B
:100720008068382E02C0883641F4F70193FD859128
:1007300093FF81917F018111B3CF982F9F7D9554B5
:10074000933028F40C5F1F4F9FE399830DC08336CD
:1007500031F0833771F0833509F059C021C0F801B9
:10076000808189830E5F1F4F88248394912C5301CD
:1007700013C02801F2E04F0E511CF801A080B18097
:1007800036FE03C0692D70E002C06FEF7FEFC50138
:100790000E9423054C018201F32DFF773F2E16C0E6
:1007A000280122E0420E511CF801A080B18036FEE3
:1007B00003C0692D70E002C06FEF7FEFC5010E949A
:1007C00018054C01F32DF0683F2E820133FC1BC04D
:1007D000822D90E088169906B0F4B60180E290E090
:1007E0000E942E052A94F4CFF50137FC859137FE3F
:1007F00081915F01B60190E00E942E0521102A949C
:1008000021E0821A91088114910471F7E8C08436BE
:1008100011F0893641F5F80137FE07C0608171811A
:10082000828193810C5F1F4F08C060817181072E08
:10083000000C880B990B0E5F1F4FF32DFF763F2E98
:1008400097FF09C090958095709561957F4F8F4F68
:100850009F4FF0683F2E2AE030E0A3010E946A0516
:10086000882E861845C0853731F4232D2F7EB22E71
:100870002AE030E025C0932D997FB92E8F36C1F044
:1008800018F4883579F0B5C0803719F0883721F031
:10089000B0C0E92FE061BE2EB4FE0DC0FB2DF460A8
:1008A000BF2E09C034FE0AC0292F2660B22E06C012
:1008B00028E030E005C020E130E002C020E132E075
:1008C000F801B7FE07C060817181828193810C5F5E
:1008D0001F4F06C06081718180E090E00E5F1F4F66
:1008E000A3010E946A05882E8618FB2DFF773F2EF4
:1008F00036FE0DC0232D2E7FA22E891458F434FE0F
:100900000BC032FC09C0832D8E7EA82E05C0B82CEA
:10091000A32C03C0B82C01C0B92CA4FE0FC0FE014B
:10092000E80DF11D8081803321F49A2D997EA92E46
:1009300009C0A2FE06C0B394B39404C08A2D867881
:1009400009F0B394A3FC11C0A0FE06C0B21488F451
:10095000280C922C9B180EC0B21460F4B60180E2F1
:1009600090E00E942E05B394F7CFB21418F42B1820
:1009700002C0982C212CA4FE10C0B60180E390E0A8
:100980000E942E05A2FE17C0A1FC03C088E790E0DC
:1009900002C088E590E0B6010CC08A2D867859F037
:1009A000A1FE02C08BE201C080E2A7FC8DE2B6018D
:1009B00090E00E942E05891438F4B60180E390E09F
:1009C0000E942E059A94F7CF8A94F301E80DF11D49
:1009D0008081B60190E00E942E058110F5CF222083
:1009E00009F442CEB60180E290E00E942E052A94DE
:1009F000F6CFF6018681978102C08FEF9FEF2B968D
:100A00000FB6F894DEBF0FBECDBFDF91CF911F911F
:100A10000F91FF90EF90DF90CF90BF90AF909F909D
:100A20008F907F906F905F904F903F902F900895A0
:100A3000FC010590615070400110D8F780959095A9
:100A40008E0F9F1F0895FC016150704001900110AE
:100A5000D8F7809590958E0F9F1F08950F931F9341
:100A6000CF93DF93FB01238121FD03C08FEF9FEF25
:100A70002CC022FF16C04681578124813581421740
:100A8000530744F4A081B1819D012F5F3F4F318313
:100A900020838C93268137812F5F3F4F37832683B6
:100AA00014C08B01EC01FB010084F185E02D199548
:100AB000892BE1F6D80116968D919C911797019696
:100AC00017969C938E931697CE01DF91CF911F912D
:100AD0000F910895FA01AA27283051F1203181F1B0
:100AE000E8946F936E7F6E5F7F4F8F4F9F4FAF4F36
:100AF000B1E03ED0B4E03CD0670F781F891F9A1F49
:100B0000A11D680F791F8A1F911DA11D6A0F711DFC
:100B1000811D911DA11D20D009F468943F912AE008
:100B2000269F11243019305D3193DEF6CF010895F0
:100B3000462F4770405D4193B3E00FD0C9F7F6CF21
:100B4000462F4F70405D4A3318F0495D31FD4052E9
:100B5000419302D0A9F7EACFB4E0A695979587957F
:100B600077956795BA95C9F700976105710508955E
:100B70009B01AC010A2E069457954795379527950A
:100B8000BA95C9F7620F731F841F951FA01D0895A2
:040B9000F894FFCF07
:100B9400000000020000000002010000000068657F
:080BA4006C6C6F2025640A004F
:00000001FF
