:100000000C945B010C947C010C947C010C947C019D
:100010000C947C010C947C010C947C010C947C016C
:100020000C947C010C947C010C947C010C947C015C
:100030000C947C010C947C010C947C010C947C014C
:100040000C947C010C947C010C947C010C947C013C
:100050000C947C010C947C010C947C010C947C012C
:100060000C947C010C947C010C947C010C947C011C
:100070000C947C010C947C010C947C010C947C010C
:100080000C947C010C947C010C947C010C947C01FC
:100090000C947C010C947C010C947C010C94DA028D
:1000A0000C947C010C947C010C947C010C947C01DC
:1000B0000C947C010C947C010C947C010C947C01CC
:1000C0000C947C010C947C010C947C010C947C01BC
:1000D0000C947C010C947C010C947C010C947C01AC
:1000E0000C947C01CE031F031F031F031F031F0378
:1000F0001F031F033B031F031F031F031F031F03D4
:100100001F031F03E1031F031F031F031F031F031D
:100110001F031F0338031F031F031F031F031F03B6
:100120001F031F0384031F031F031F031F031F035A
:100130001F031F033B031F031F031F031F031F0393
:100140001F031F0384031F031F031F031F031F033A
:100150001F031F0384031F031F031F031F031F032A
:100160001F031F0353031F031F031F031F031F034B
:100170001F031F0384031F031F031F031F031F030A
:100180001F031F036A031F031F031F031F031F0314
:100190001F031F0392031F031F031F031F031F03DC
:1001A0001F031F03A4031F031F031F031F031F03BA
:1001B0001F031F03A4031F031F031F031F031F03AA
:1001C0001F031F03A4031F031F031F031F031F039A
:1001D0001F031F03A4031F031F031F031F031F038A
:1001E0001F031F03B4031F031F031F031F031F036A
:1001F0001F031F03D6031F031F031F031F031F0338
:100200001F031F03B4031F031F031F031F031F0349
:100210001F031F03D6031F031F031F031F031F0317
:100220001F031F032F031F031F031F031F031F03AE
:100230001F031F03F8021F031F031F031F031F03D6
:100240001F031F03F8021F031F031F031F031F03C6
:100250001F031F03FB021F031F031F031F031F03B3
:100260001F031F032F031F031F031F031F031F036E
:100270001F031F032F030C94FB020C94A4030C9484
:100280001F030C947E010C946A030C94D6030C9407
:1002900084030C94CE030C94B4030C9492030C943A
:1002A00038030C9453030C94F8020C943B030C9405
:1002B000E1030C942F0311241FBECFEFD1E2DEBF68
:1002C000CDBF00E00CBF12E0A0E0B2E0EAE1F0E157
:1002D00000E00BBF02C007900D92A438B107D9F718
:1002E00022E0A4E8B2E001C01D92AD3BB207E1F705
:1002F0000E9411040C940B080C9400008A3049F001
:100300009091C00095FFFCCF8093C60080E090E004
:1003100008959091C00095FFFCCF9DE09093C6009A
:10032000EFCF9093C5008093C40086E08093C20015
:1003300088E18093C10008959091C00095FFFCCFA3
:100340008093C60008958091C00087FFFCCF809104
:10035000C60008958091C000881F8827881F0895CF
:10036000FC012081222351F031969091C00095FF2D
:10037000FCCF2093C60021912111F7CF089580E092
:1003800092E09093BA028093B9021092C50082E382
:100390008093C40086E08093C20088E18093C1000E
:1003A0000895E8E9F2E010828FEF818312821092C3
:1003B000B90088E48093B80085E08093BC0008957C
:1003C000E8E9F2E010829FEF918312821092B90067
:1003D00098E49093B800880F81608093BA0085E01C
:1003E0008093BC000895909198029D7F81E009F070
:1003F00080E00895809199020895653128F02CC01D
:1004000025E02A95F1F7000020919802322F3D7FD8
:10041000B9F740939A0270E06115710559F0DC015B
:10042000EDE9F2E0AB0143565D4F8D9181934E179C
:100430005F07D9F77093B6026093B50210929C02E1
:1004400010929B0281E080939802223039F085EA75
:100450008093BC0080E0089581E0089580919B0224
:1004600090919C029C012F5F3F4F30939C02209300
:100470009B02FC01E356FD4F80818093BB0085E821
:100480008093BC0080E00895643110F080E008950E
:100490001092B4021092B30270E07093B2026093B3
:1004A000B102880F816004C095E09A95F1F70000D1
:1004B00090919802292F2D7FB9F740939A0280934B
:1004C0009D0221E030E03093B6022093B5021092F5
:1004D0009C0210929B02923041F081E0809398023E
:1004E00085EA8093BC0081E0089581E080939802C2
:1004F00080919B0290919C029C012F5F3F4F309313
:100500009C0220939B02FC01E356FD4F8081809367
:10051000BB0085E88093BC00E6CF843128F019C089
:1005200095E09A95F1F70000909198029D7FC1F7B0
:100530001092B4021092B30290E09093B2028093B2
:10054000B10281E08093980285EC8093BC0081E049
:10055000089580E00895653158F5209198022D7F27
:1005600041F025E02A95F1F70000209198022D7FB7
:10057000C1F770E06115710559F0DC01EDE9F2E0B9
:100580009B0123563D4F8D9181932E173F07D9F73D
:100590007093B6026093B50210929C0210929B0277
:1005A00081E08093980285EC8093BC0081E00895FF
:1005B00080E008951F920F920FB60F9211240BB690
:1005C0000F922F933F934F938F939F93AF93BF932C
:1005D000EF93FF938091B900887F90E0893C91056B
:1005E00070F5FC018827EE58FF4F8F4F0C94DF0405
:1005F00085E08093980220919B0230919C0280912B
:10060000B5029091B6020197281739070CF0DDC0AA
:1006100080919B0290919C029C012F5F3F4F3093F1
:100620009C0220939B02FC01E356FD4F8081809346
:10063000BB0088EF8093990285EC8093BC00FF910A
:10064000EF91BF91AF919F918F914F913F912F91DA
:100650000F900BBE0F900FBE0F901F9018958FEF4D
:10066000809399021092980285E88093BC00E7CFAE
:1006700083E08093980220919B0230919C028091AC
:10068000B5029091B602281739070CF49EC08091EC
:100690009A02882309F4B1C08FEF8093990285EA0A
:1006A0008093BC00CCCF84E0809398028091B1020B
:1006B0009091B20201972091B3023091B4022817B1
:1006C00039070CF4B6CF88EF8093990285E88093C0
:1006D000BC00B5CF8091B3029091B4029C012F5F12
:1006E0003F4F3093B4022093B3024091BB00FC0112
:1006F000EC57FD4F40838091B1029091B202019777
:100700002817390704F795CF80919A02882309F4B6
:100710007DC08091B900887F8093990285EA80939B
:10072000BC008DCF8091B3029091B4029C012F5FE9
:100730003F4F3093B4022093B3022091BB00FC01E1
:10074000EC57FD4F2083A3CF86E080939802209141
:10075000B3023091B4028091B1029091B202281795
:1007600039070CF0B0CF65CF8091B3029091B402FD
:100770009C012F5F3F4F3093B4022093B30240910E
:10078000BB00FC01EC57FD4F40838091B10290917A
:10079000B202281739070CF096CF4BCF109299026E
:1007A0001092980285E98093BC0049CF8091B900EE
:1007B000887F809399021092980285E88093BC000C
:1007C0003ECF82E0809398023ACF80919B02909135
:1007D0009C029C012F5F3F4F30939C0220939B0211
:1007E000FC01E356FD4F80818093BB0088EF80932E
:1007F000990285E88093BC0022CF109298028FEF77
:100800008093990285E98093BC0019CF10929802D9
:100810008091B900887F8093990285E98093BC001C
:100820000ECFCF93DF9300D01F921F92CDB7DEB7CC
:100830000E94BF010E94D101789482E0C82E0EE38D
:1008400012E098E5E92E92E0F92E24E0D22E8EE017
:1008500092E00E9421050E94A3011D82873609F4BF
:100860006BC0A0F18D3609F453C0833709F04BC03B
:100870000E94A3018C83CE0104960E94E704880F96
:10088000898383E08A830E94A3018B8340E063E035
:10089000CE0101960E94FD0104C025E02A95F1F7E2
:1008A00000000E94F3018823C1F30E94FA018F3FE8
:1008B00029F10E94FA011F928F931F930F930E94B8
:1008C0000D050F900F900F900F90C1CF8136D9F486
:1008D0001982DA821B8240E063E0CE0101960E9419
:1008E000FD0104C085E08A95F1F700000E94F30144
:1008F0008823C1F30E94FA018F3FD9F685E292E086
:100900000E942105A4CF83E792E00E9421059FCF9A
:10091000198281E08A831B8240E063E0CE01019668
:100920000E94FD0104C085E08A95F1F700000E9455
:10093000F3018823C1F3B9CF0E94A3018C83CE01B8
:1009400004960E94E704880F8983CA821B8240E0D4
:1009500063E0CE0101960E94FD0104C095E09A95E6
:10096000F1F700000E94F3018823C1F32FEF81EE1D
:1009700094E0215080409040E1F700C0000040E04A
:1009800061E081E00E94440204C025E02A95F1F76D
:1009900000000E94F3018823C1F30E94FA018F3FF7
:1009A00009F087CF809184021F928F93FF92EF927C
:1009B0000E940D050F900F900F900F9048CFEE0FF3
:1009C000FF1F881F8BBF0790F691E02D1994FC0143
:1009D00088279927E89421912032E9F3293010F0F3
:1009E0002E30C8F32B3241F02D3239F4689404C014
:1009F0000E940505820F911D219120532A30C0F3DA
:100A00001EF4909581959F4F08957AE0979F902DC1
:100A1000879F802D910D11240895CF93DF93CDB73B
:100A2000DEB7AE014A5F5F4FFA0161917191AF018C
:100A30008091B9029091BA020E945105DF91CF9145
:100A400008950F931F93CF93DF93E091B902F09134
:100A5000BA02238121FF1BC08C01D0E0C0E0F80165
:100A600081918F016091B9027091BA02DB011896F1
:100A7000ED91FC911997882331F01995892B79F321
:100A8000DFEFCFEFECCF8AE01995892B19F08FEFCC
:100A90009FEF02C08D2F9C2FDF91CF911F910F915F
:100AA00008952F923F924F925F926F927F928F9212
:100AB0009F92AF92BF92CF92DF92EF92FF920F93ED
:100AC0001F93CF93DF93CDB7DEB72B970FB6F89474
:100AD000DEBF0FBECDBF6C017B018A01FC01178216
:100AE0001682838181FFCCC1CE0101963C01F601C3
:100AF0009381F70193FD859193FF81917F01882375
:100B000009F4BAC1853239F493FD859193FF81913F
:100B10007F01853229F4B60190E00E947107E7CF8A
:100B2000912C212C312CFFE1F315D8F08B3279F088
:100B300038F4803279F08332A1F4232D20611DC076
:100B40008D3261F0803369F4232D216016C0832D2E
:100B50008260382EE32DE4603E2E2AC0F32DF8602B
:100B60001DC037FC2DC020ED280F2A3040F08E32FA
:100B7000B9F436FC81C1232D2064322E19C036FE13
:100B800006C08AE0989E200D1124922E11C0EAE042
:100B90002E9E200D1124222EF32DF0623F2E08C030
:100BA0008C3621F4832D8068382E02C0883641F4BB
:100BB000F70193FD859193FF81917F018111B3CF5F
:100BC000982F9F7D9554933028F40C5F1F4F9FE31F
:100BD00099830DC0833631F0833771F0833509F086
:100BE00059C021C0F801808189830E5F1F4F88247E
:100BF0008394912C530113C02801F2E04F0E511C35
:100C0000F801A080B18036FE03C0692D70E002C0FB
:100C10006FEF7FEFC5010E9466074C018201F32D43
:100C2000FF773F2E16C0280122E0420E511CF8012A
:100C3000A080B18036FE03C0692D70E002C06FEF66
:100C40007FEFC5010E945B074C01F32DF0683F2E3A
:100C5000820133FC1BC0822D90E088169906B0F407
:100C6000B60180E290E00E9471072A94F4CFF5016A
:100C700037FC859137FE81915F01B60190E00E94BB
:100C8000710721102A9421E0821A9108811491049D
:100C900071F7E8C0843611F0893641F5F80137FE66
:100CA00007C060817181828193810C5F1F4F08C0F2
:100CB00060817181072E000C880B990B0E5F1F4F0E
:100CC000F32DFF763F2E97FF09C090958095709584
:100CD00061957F4F8F4F9F4FF0683F2E2AE030E0A5
:100CE000A3010E94AD07882E861845C0853731F4D0
:100CF000232D2F7EB22E2AE030E025C0932D997F40
:100D0000B92E8F36C1F018F4883579F0B5C0803728
:100D100019F0883721F0B0C0E92FE061BE2EB4FE93
:100D20000DC0FB2DF460BF2E09C034FE0AC0292F70
:100D30002660B22E06C028E030E005C020E130E099
:100D400002C020E132E0F801B7FE07C06081718186
:100D5000828193810C5F1F4F06C06081718180E0AA
:100D600090E00E5F1F4FA3010E94AD07882E8618EA
:100D7000FB2DFF773F2E36FE0DC0232D2E7FA22E9A
:100D8000891458F434FE0BC032FC09C0832D8E7ECA
:100D9000A82E05C0B82CA32C03C0B82C01C0B92CB8
:100DA000A4FE0FC0FE01E80DF11D8081803321F407
:100DB0009A2D997EA92E09C0A2FE06C0B394B394C1
:100DC00004C08A2D867809F0B394A3FC11C0A0FE5C
:100DD00006C0B21488F4280C922C9B180EC0B214D2
:100DE00060F4B60180E290E00E947107B394F7CFFF
:100DF000B21418F42B1802C0982C212CA4FE10C099
:100E0000B60180E390E00E947107A2FE17C0A1FC2A
:100E100003C088E790E002C088E590E0B6010CC00E
:100E20008A2D867859F0A1FE02C08BE201C080E2D3
:100E3000A7FC8DE2B60190E00E947107891438F496
:100E4000B60180E390E00E9471079A94F7CF8A94EC
:100E5000F301E80DF11D8081B60190E00E94710759
:100E60008110F5CF222009F442CEB60180E290E055
:100E70000E9471072A94F6CFF6018681978102C0FD
:100E80008FEF9FEF2B960FB6F894DEBF0FBECDBF4E
:100E9000DF91CF911F910F91FF90EF90DF90CF9056
:100EA000BF90AF909F908F907F906F905F904F908A
:100EB0003F902F900895FC01059061507040011003
:100EC000D8F7809590958E0F9F1F0895FC01615073
:100ED000704001900110D8F7809590958E0F9F1F5C
:100EE00008950F931F93CF93DF93FB01238121FD7F
:100EF00003C08FEF9FEF2CC022FF16C046815781A1
:100F0000248135814217530744F4A081B1819D01AA
:100F10002F5F3F4F318320838C93268137812F5F52
:100F20003F4F3783268314C08B01EC01FB01008403
:100F3000F185E02D1995892BE1F6D80116968D9152
:100F40009C911797019617969C938E931697CE01B6
:100F5000DF91CF911F910F910895FA01AA272830B0
:100F600051F1203181F1E8946F936E7F6E5F7F4F76
:100F70008F4F9F4FAF4FB1E03ED0B4E03CD0670FF2
:100F8000781F891F9A1FA11D680F791F8A1F911D45
:100F9000A11D6A0F711D811D911DA11D20D009F495
:100FA00068943F912AE0269F11243019305D3193D7
:100FB000DEF6CF010895462F4770405D4193B3E0C0
:100FC0000FD0C9F7F6CF462F4F70405D4A3318F067
:100FD000495D31FD4052419302D0A9F7EACFB4E018
:100FE000A6959795879577956795BA95C9F70097D0
:100FF0006105710508959B01AC010A2E0694579571
:10100000479537952795BA95C9F7620F731F841FC7
:0A101000951FA01D0895F894FFCF6E
:10101A0000000002000000007E010000000057618D
:10102A006974696E6720666F7220636F6D6D616E99
:10103A00642E2E2E005375636365737366756C6C2C
:10104A0079207472616E736D697474656400536F8C
:10105A006D657468696E672077656E742077726F44
:10106A006E673A2025780A00537563636573736661
:10107A00756C6C7920476F7420646174613A20251D
:10108A00780A00556E6B6E6F776E20636F6D6D61B7
:04109A006E64000080
:00000001FF
