:100000000C945B010C947C010C947C010C947C019D
:100010000C947C010C947C010C947C010C947C016C
:100020000C947C010C947C010C947C010C947C015C
:100030000C947C010C947C010C947C010C947C014C
:100040000C947C010C947C010C947C010C947C013C
:100050000C947C010C947C010C947C010C947C012C
:100060000C947C010C947C010C947C010C947C011C
:100070000C947C010C947C010C947C010C947C010C
:100080000C947C010C947C010C947C010C947C01FC
:100090000C947C010C947C010C947C010C94DA028D
:1000A0000C947C010C947C010C947C010C947C01DC
:1000B0000C947C010C947C010C947C010C947C01CC
:1000C0000C947C010C947C010C947C010C947C01BC
:1000D0000C947C010C947C010C947C010C947C01AC
:1000E0000C947C01CE031F031F031F031F031F0378
:1000F0001F031F033B031F031F031F031F031F03D4
:100100001F031F03E1031F031F031F031F031F031D
:100110001F031F0338031F031F031F031F031F03B6
:100120001F031F0384031F031F031F031F031F035A
:100130001F031F033B031F031F031F031F031F0393
:100140001F031F0384031F031F031F031F031F033A
:100150001F031F0384031F031F031F031F031F032A
:100160001F031F0353031F031F031F031F031F034B
:100170001F031F0384031F031F031F031F031F030A
:100180001F031F036A031F031F031F031F031F0314
:100190001F031F0392031F031F031F031F031F03DC
:1001A0001F031F03A4031F031F031F031F031F03BA
:1001B0001F031F03A4031F031F031F031F031F03AA
:1001C0001F031F03A4031F031F031F031F031F039A
:1001D0001F031F03A4031F031F031F031F031F038A
:1001E0001F031F03B4031F031F031F031F031F036A
:1001F0001F031F03D6031F031F031F031F031F0338
:100200001F031F03B4031F031F031F031F031F0349
:100210001F031F03D6031F031F031F031F031F0317
:100220001F031F032F031F031F031F031F031F03AE
:100230001F031F03F8021F031F031F031F031F03D6
:100240001F031F03F8021F031F031F031F031F03C6
:100250001F031F03FB021F031F031F031F031F03B3
:100260001F031F032F031F031F031F031F031F036E
:100270001F031F032F030C94A4030C9492030C94EC
:10028000FB020C941F030C9438030C947E010C9415
:100290006A030C94D6030C94E1030C94CE030C94E3
:1002A000F8020C942F030C9453030C94B4030C9495
:1002B0003B030C94840311241FBECFEFD1E2DEBFB9
:1002C000CDBF00E00CBF12E0A0E0B2E0EAEDF8E044
:1002D00000E00BBF02C007900D92AE30B107D9F716
:1002E00022E0AEE0B2E001C01D92A734B207E1F710
:1002F0000E9411040C946B040C9400008A3049F0A5
:100300009091C00095FFFCCF8093C60080E090E004
:1003100008959091C00095FFFCCF9DE09093C6009A
:10032000EFCF9093C5008093C40086E08093C20015
:1003300088E18093C10008959091C00095FFFCCFA3
:100340008093C60008958091C00087FFFCCF809104
:10035000C60008958091C000881F8827881F0895CF
:10036000FC012081222351F031969091C00095FF2D
:10037000FCCF2093C60021912111F7CF089580E092
:1003800092E090934402809343021092C50082E36E
:100390008093C40086E08093C20088E18093C1000E
:1003A0000895E2E2F2E010828FEF818312821092D0
:1003B000B90088E48093B80085E08093BC0008957C
:1003C000E2E2F2E010829FEF918312821092B90074
:1003D00098E49093B800880F81608093BA0085E01C
:1003E0008093BC000895909122029D7F81E009F0E6
:1003F00080E00895809123020895653128F02CC093
:1004000025E02A95F1F7000020912202322F3D7F4E
:10041000B9F74093240270E06115710559F0DC01D1
:10042000E7E2F2E0AB01495D5D4F8D9181934E179C
:100430005F07D9F77093400260933F021092260243
:100440001092250281E080932202223039F085EA61
:100450008093BC0080E0089581E00895809125029A
:10046000909126029C012F5F3F4F309326022093EC
:100470002502FC01E95DFD4F80818093BB0085E88A
:100480008093BC0080E00895643110F080E008950E
:1004900010923E0210923D0270E070933C02609315
:1004A0003B02880F816004C095E09A95F1F7000047
:1004B00090912202292F2D7FB9F740932402809337
:1004C000270221E030E03093400220933F02109257
:1004D000260210922502923041F081E080932202A0
:1004E00085EA8093BC0081E0089581E08093220238
:1004F00080912502909126029C012F5F3F4F3093FF
:10050000260220932502FC01E95DFD4F8081809346
:10051000BB0085E88093BC00E6CF843128F019C089
:1005200095E09A95F1F70000909122029D7FC1F726
:1005300010923E0210923D0290E090933C02809314
:100540003B0281E08093220285EC8093BC0081E035
:10055000089580E00895653158F5209122022D7F9D
:1005600041F025E02A95F1F70000209122022D7F2D
:10057000C1F770E06115710559F0DC01E7E2F2E0C6
:100580009B01295D3D4F8D9181932E173F07D9F730
:100590007093400260933F0210922602109225024F
:1005A00081E08093220285EC8093BC0081E0089575
:1005B00080E008951F920F920FB60F9211240BB690
:1005C0000F922F933F934F938F939F93AF93BF932C
:1005D000EF93FF938091B900887F90E0893C91056B
:1005E00070F5FC018827EE58FF4F8F4F0C94630481
:1005F00085E080932202209125023091260280918D
:100600003F02909140020197281739070CF0DDC096
:1006100080912502909126029C012F5F3F4F3093DD
:10062000260220932502FC01E95DFD4F8081809325
:10063000BB0088EF8093230285EC8093BC00FF9180
:10064000EF91BF91AF919F918F914F913F912F91DA
:100650000F900BBE0F900FBE0F901F9018958FEF4D
:10066000809323021092220285E88093BC00E7CF9A
:1006700083E080932202209125023091260280910E
:100680003F0290914002281739070CF49EC08091D8
:100690002402882309F4B1C08FEF8093230285EAF6
:1006A0008093BC00CCCF84E08093220280913B02F7
:1006B00090913C02019720913D0230913E02281713
:1006C00039070CF4B6CF88EF8093230285E8809336
:1006D000BC00B5CF80913D0290913E029C012F5FFE
:1006E0003F4F30933E0220933D024091BB00FC01FE
:1006F000E25FFD4F408380913B0290913C02019765
:100700002817390704F795CF80912402882309F42C
:100710007DC08091B900887F8093230285EA809311
:10072000BC008DCF80913D0290913E029C012F5FD5
:100730003F4F30933E0220933D022091BB00FC01CD
:10074000E25FFD4F2083A3CF86E0809322022091B9
:100750003D0230913E0280913B0290913C0228176D
:1007600039070CF0B0CF65CF80913D0290913E02E9
:100770009C012F5F3F4F30933E0220933D024091FA
:10078000BB00FC01E25FFD4F408380913B029091F2
:100790003C02281739070CF096CF4BCF109223025A
:1007A0001092220285E98093BC0049CF8091B90064
:1007B000887F809323021092220285E88093BC00F8
:1007C0003ECF82E0809322023ACF80912502909121
:1007D00026029C012F5F3F4F309326022093250273
:1007E000FC01E95DFD4F80818093BB0088EF809321
:1007F000230285E88093BC0022CF109222028FEF63
:100800008093230285E98093BC0019CF10922202C5
:100810008091B900887F8093230285E98093BC0092
:100820000ECFCF93DF931F92CDB7DEB784B18FEF9A
:1008300084B981B111B815B881E00E94E0017894C3
:1008400000E010E083E00E948D0283B7816083BFE7
:10085000889583B78E7F83BF04C085E08A95F1F7C2
:1008600000000E94F3018823C1F30E94FA018F3F28
:1008700039F08FE99FE00197F1F700C00000E2CF67
:1008800040910E0250910F0280911002242F250FEB
:1008900030E090E02817390761F7423059F030F026
:1008A000433079F0443029F705B9E3CF413009F7F7
:1008B00010B1DFCF198361E0CE0101960E94AB0237
:1008C000D8CF052FD6CFEE0FFF1F881F8BBF079005
:0A08D000F691E02D1994F894FFCF83
:0E08DA0000000002000000007E01000000008F
:00000001FF
